:020000040800F2
:100000009807002079020008810200088302000896
:10001000850200088702000889020008000000002D
:100020000000000000000000000000008B0200083B
:100030008D020008000000008F02000891020008F5
:10004000930200089302000893020008930200083C
:10005000930200089302000891030008930200082D
:10006000930200089302000893020008930200081C
:10007000930200089302000893020008930200080C
:1000800093020008930200089302000893020008FC
:1000900093020008930200089302000893020008EC
:1000A00093020008930200089302000893020008DC
:1000B000930200084106000893020008930200081A
:1000C00093020008930200089302000893020008BC
:1000D00093020008C50700082302000893020008E5
:1000E00093020008930200089302000800F002F84F
:1000F00000F042F814A696E8000CB244B344DA4586
:1001000001D100F039F8BAE80F000FA696E83000E8
:10011000A5EB040504EB0607AAEB0704A7F101070A
:100120004FEA15154FEA3414A4F10104AC4201D38F
:1001300000F022F813F0010F18BFFB1A43F001037F
:1001400000F001F8DBE71847A8070000B807000037
:10015000704700000023002400250026103A28BF25
:1001600078C1FBD8520728BF30C148BF0B60704729
:100170001FB51FBD10B510BD00F0A1F81146FFF767
:10018000F7FF00F085FB00F0BFF803B4FFF7F2FFC4
:1001900003BC00F0C7F8000000B51649086850F429
:1001A000003008601449086850F0040008601349E2
:1001B000086820F47F4050F4306050F480400860BC
:1001C0000F494FF4005008600E494FF000000860DE
:1001D0000D494FF49C7008600949086850F004000C
:1001E00050F0080050F02000086008494FF040002F
:1001F000086000BD1C1002401810024000080140B9
:100200000C440040104400400844004004E100E079
:1002100000B51349087013490A6842F080020A6069
:1002200000BD00B510490A6812F0800F08D00C49D3
:100230000B780E490B700B490A6822F080020A60A5
:1002400009490A6812F0200F07D008490A780849BE
:100250000A7008494FF001020A705DF804EB70471C
:10026000910100200C440040004400400444004040
:100270006200002096010020094880470948004795
:10028000FEE7FEE7FEE7FEE7FEE7FEE7FEE7FEE746
:10029000FEE7FEE704480549054A064B70470000A3
:1002A00031050008ED0000089801002098070020A3
:1002B00098030020980300207047704770477546E8
:1002C00000F02CF8AE4605006946534620F00700C2
:1002D000854618B020B5FFF7DDFFBDE820404FF0A0
:1002E00000064FF000074FF000084FF0000BAC463F
:1002F000ACE8C009ACE8C009ACE8C009ACE8C0098A
:1003000021F007018D46704710B50446AFF3008019
:100310002046BDE81040FFF738BF00000048704796
:100320000000002001491820ABBEFEE726000200B5
:100330007047000041F21800C4F20200016841F069
:100340000401016040F60001C4F201010A6822F0D4
:10035000F0020A60016841F40071016042F2084154
:10036000C4F201010A6822F001020A6050F8142C5C
:1003700042F4004240F8142C886840F0380088604D
:100380000120C862086840F0010008607047000062
:1003900010B540F21444C4F201042068C00708BF3D
:1003A00010BD452000F0F0F9412000F0EDF9206883
:1003B00040F00100206010BD81B041F21800C4F28D
:1003C0000200016841F01C0101600068009040F6E5
:1003D0000040C4F20100016821F07F410160016822
:1003E00041F088510160D0F8041421F47001C0F884
:1003F0000414D0F8041441F48011C0F80414D0F8A7
:100400000C1421F40051C0F80C1440F60001C4F2A1
:1004100001010A6822F00F020A600A6842F008022D
:100420000A604FF60C42CFF6FF72835843F0010387
:100430008350885840F0010088504FF60840CFF6AE
:10044000FF700A5822F001020A504FF60040CFF622
:10045000FF700A5842F001020A504EF20640CEF2F6
:100460000000102101704EF20010CEF20000402179
:10047000016001B07047000041F20400C4F20200C4
:1004800050F8041C41F4803140F8041C50F8041C5E
:100490008903FBD5016821F47C110160016841F4F6
:1004A000E811016050F8041C41F0807140F8041C10
:1004B00050F8041C8901FBD5016843F6F37291439F
:1004C0000160016840F2024211430160016801F0DD
:1004D0000C010829FAD170474EF21000CEF200004C
:1004E00000216FF07F420160426081600521016060
:1004F00070470000002808BF704780B54EF2100218
:100500004FF67F4E4FF0000CCEF20002C0F20A0E02
:10051000002100BFC2F804E0C2F808C01368DB0382
:10052000FCD501318142F5D1BDE880407047000023
:1005300082B041F20400C4F2020050F8041C002210
:1005400041F0010140F8041C0168CFF6FF021140A0
:10055000016050F8041C4FF6FF72CFF6F6621140AE
:1005600040F8041C50F8041C21F4802140F8041CBD
:10057000016821F4FE0101604FF41F014160002178
:100580000191009150F8041C41F4803140F8041CA2
:1005900050F8041C01F400310091019901310191DE
:1005A000009919B90199B1F5A06FF1D150F8041C67
:1005B000890354BF0021012100910099012936D1FE
:1005C00042F20001C4F202010A6842F010020A601D
:1005D0000A6822F007020A600A6842F002020A6012
:1005E0000168016001680160016841F48061016097
:1005F000016821F47C110160016841F4E811016097
:1006000050F8041C41F0807140F8041C50F8041CA0
:100610008901FBD5016821F003010160016841F007
:1006200002010160016801F00C010829FAD14EF6BF
:100630000850CEF200004FF00061016002B0704738
:1006400040F21040C4F200000188C90708BF70479B
:10065000018821F00101018042F20840C4F201004A
:10066000016841F48001016040F26000C2F20000C4
:100670000121017041F20C00C4F20100016881F413
:10068000005101607047000041F21C02C4F20202F6
:100690001368013843F00203136040F20042C4F2D1
:1006A0000002138823F001031380002313801388B2
:1006B00023F01003138041F61F4313859085108AA1
:1006C00020F001001082908940F001009081080123
:1006D0004EF21D41CEF2000108704EF20010CEF233
:1006E00000004FF000510160108840F001001080C0
:1006F0007047000041F21800C4F20200016841F4A2
:1007000080410160016841F00401016040F604008D
:10071000C4F20100016821F47F610160016841F0C9
:1007200030010160016841F080010160016841F41D
:100730008061016043F60C00C4F2010000210180D9
:10074000028842F400520280028822F48052028021
:100750008180818821F44051818040F2712120F80C
:10076000041C018841F004010180018841F0080166
:100770000180018841F0200101804EF20410CEF288
:10078000000020210160704740F29411C2F2000184
:100790000A7840F22D13C2F20003985408784FF4FF
:1007A000247201304243120C642302FB13000870D0
:1007B00044F20C40C4F20000018841F08001018045
:1007C0007047000043F60C00C4F2010030F80C1C26
:1007D000090644BF01885FEA016133D430F80C1C7C
:1007E00089062ED540F2C80CC2F2000C9CF80020FD
:1007F00045F629430132C0F28F23A2FB0331642363
:1008000001FB132240F2C701C2F2000109788A42BB
:1008100008BF704730F8080C40F26101C2F20001D5
:10082000087040F29510C2F20000012303700878AE
:100830009CF8001040F26303C2F2000358548CF895
:100840000020704740F2921140F29313C2F200016F
:10085000C2F200030A781B789A4204D1018821F081
:1008600080010180BAE70A7840F2C903C2F20003AE
:100870009A5C4FF4247320F8082C0A780132534311
:100880004FEA134C64230CFB13220A70A6E7000006
:10089000FFF7F2FDFFF790FDFFF74CFD40F24D1022
:1008A00000210024FFF7F0FEFFF724FFFFF774FCA0
:1008B000FFF712FE3920FFF767FF3920FFF764FFCB
:1008C00040F29615C2F2000503E000BF6420FFF776
:1008D00011FE4120FFF79CFC4220FFF799FC28788D
:1008E0000028F3D039202C70FFF792FCEEE70000CF
:1008F00000090008000000209807000054010008CB
:040000050800027974
:00000001FF
